:100000000C94BB010C947D180C9456180C94211A76
:100010000C94BE190C944D190C94A4180C94BB1894
:100020000C94E3010C94FD180C94E3010C94E3018F
:100030000C94E3010C9427190C94E3010C94E30154
:100040000C940C180C94E3010C94DA170C94B4176C
:100050000C94E3010C94F3180C94E3010C94E30169
:100060000C94E3010C94E301300030300030303068
:100070000030303030003030303030003030303010
:10008000303000303030303030300020000D0A0089
:10009000202D200020002000200020002000200033
:1000A0000D0A000000000000000000021405050019
:1000B0000000000201140100000000000000000028
:1000C0000000000201040000000000060305010119
:1000D00001010A060107000006000A0206020200EA
:1000E00000000005010804040404000000000000F2
:1000F00000000002140505000000000201140100C8
:1001000000000002010400000000000000000000E8
:10011000000000060305010101010A0601010105B5
:1001200001050A020602020000000005010804049D
:100130000404002D3E2000007761697441636B3A2E
:1001400020003C2D2000424F4F544C4F414445521B
:10015000004841564520444154410069676E6F7222
:100160006520002D3E20000000000000000000027D
:100170001405050000000002010A01000000000053
:100180000000000000000000000000000000000669
:100190000305010101010A060101010501050A0229
:1001A0000602020000000005010804040404000027
:1001B000206C6F6E6772656C656173656400206C9E
:1001C0006F6E677072657373656400206465626F3B
:1001D000756E6365002070726573736564002072CC
:1001E000656C65617365640001695663633A20005C
:1001F0000D0A005061636B657420746F6F20626933
:10020000673A2000435243204661696C656400529E
:10021000455345540000000000250028002B000035
:1002200000000800020100000304070000000000B5
:10023000000000436F6E66696720467265713A2060
:10024000307832310000000000240027002A00200E
:100250002D2072656164790043432056657273698D
:100260006F6E3A2000002E0206030D04E905CA074E
:100270000C0B060D210E650F6A10C81193120315A1
:10028000341703181819161B431E2F1F65207823D7
:10029000E9242A251F26113E033100434320696EBD
:1002A0006974000408090D0A00496E6974205374CA
:1002B0006F726167653A20000D0A00202D20004111
:1002C0006464726573732053706163653A20004102
:1002D000736B53696E2B2B2076352E302E302028F1
:1002E0004A616E20203920323032352030343A33A2
:1002F000383A343829000D0A0020726561643A20CA
:10030000002065787065637465643A2000457272F8
:100310006F72206174200000000000230026002975
:1003200000000102030405060700010203040500A2
:100330000102030405040404040404040402020288
:100340000202020303030303030102040810204016
:100350008001020408102001020408102078901285
:100360007061706133333333333300000811400060
:100370000000841A622111241FBECFEFD8E0DEBF37
:10038000CDBF11E0A0E0B1E0E2E1F7E402C00590EA
:100390000D92AE37B107D9F723E0AEE7B1E001C067
:1003A0001D92A43DB207E1F711E0CAEBD1E004C011
:1003B0002197FE010E943B22C93BD107C9F70E9449
:1003C000611C0C947C230C94000090E0FC01E75B22
:1003D000FC4F2491FC01EB5CFC4F3491323089F5E9
:1003E0004091C201422B4093C2014091BF01422B78
:1003F0004093BF018F5D9C4FFC01A491323079F591
:10040000B0E0AA0FBB1FAF54BE4F6D937C93EBE1DE
:10041000F3E0A591B4918C918093B0018BE690E0CC
:100420009093AF018093AE018091680081608093CA
:100430006800A091AE01B091AF01EC912E2B2C93EE
:100440000895333009F03FC04091C101422B4093E1
:10045000C1014091BE01422B4093BE01CBCF33304E
:10046000C1F4B0E0AA0FBB1FAE55BE4F6D937C9395
:10047000EDE1F3E0A591B4918C918093A1018CE61C
:1004800090E09093AF018093AE018091680082600C
:10049000CECF343071F6B0E0AA0FBB1FAF56BE4FBF
:1004A0006D937C93EFE1F3E0A591B4918C918093EF
:1004B00090018DE690E09093AF018093AE01809122
:1004C00068008460B4CF343009F094CF4091C0010B
:1004D000422B4093C0014091BD01422B4093BD018E
:1004E00089CF8CBD9DBD089508958FEF08956A3022
:1004F00050F4FC01808191810396F5E06F9F800D9F
:10050000911D1124089590E080E008950895AF9220
:10051000BF92CF92DF92EF92FF920F931F93CF93F0
:10052000DF936C017B018B01040F151FEB015E0152
:10053000AE18BF08C017D10759F06991D601ED91E7
:10054000FC910190F081E02DC6010995892B79F786
:10055000C501DF91CF911F910F91FF90EF90DF9038
:10056000CF90BF90AF900895FC01538D448D252FFF
:1005700030E0842F90E0821B930B541710F0CF963D
:10058000089501970895FC01918D828D981761F06F
:10059000A28DAE0FBF2FB11D5D968C91928D9F5F86
:1005A0009F73928F90E008958FEF9FEF0895FC0165
:1005B000918D828D981731F0828DE80FF11D858D18
:1005C00090E008958FEF9FEF0895FC01918D228DAB
:1005D000892F90E0805C9F4F821B91098F73992730
:1005E000089583EC91E00E94E50221E0892B09F453
:1005F00020E0822F089580E090E0892B29F00E946E
:10060000F10281110C9400000895FC01A48DA80F43
:10061000B92FB11DA35ABF4F2C91848D90E0019644
:100620008F739927848FA689B7892C93A089B18964
:100630008C91837080648C93938D848D981306C005
:100640000288F389E02D80818F7D80830895EF9269
:10065000FF920F931F93CF93DF93EC0181E0888F7C
:100660009B8D8C8D98131AC0E889F989808185FF4C
:1006700015C09FB7F894EE89FF896083E889F989EE
:1006800080818370806480839FBF81E090E0DF91F0
:10069000CF911F910F91FF90EF900895F62E0B8D43
:1006A00010E00F5F1F4F0F731127E02E8C8D8E11FE
:1006B0000CC00FB607FCFACFE889F989808185FF65
:1006C000F5CFCE010E940503F1CFEB8DEC0FFD2F8E
:1006D000F11DE35AFF4FF0829FB7F8940B8FEA8920
:1006E000FB8980818062CFCF0F931F93CF93DF93DD
:1006F0008C01D0E0C0E0F801EC0FFD1F649166238F
:1007000041F083EC91E00E942703892B11F02196A0
:10071000F2CFCE01DF91CF911F910F910895CF932A
:10072000DF93EC01888D8823B9F0AA89BB89E88919
:10073000F9898C9185FD03C0808186FD0DC00FB6BF
:1007400007FCF7CF8C9185FFF2CF808185FFEDCF3D
:10075000CE010E940503E9CFDF91CF910895833048
:1007600081F028F4813099F08230A9F00895873023
:10077000A9F08830C9F08430B1F4809180008F7D79
:1007800003C0809180008F7780938000089584B5A6
:100790008F7784BD089584B58F7DFBCF8091B000A5
:1007A0008F778093B00008958091B0008F7DF9CF4E
:1007B000CF93DF93282F30E0F901E15EFD4F849164
:1007C000F901E75BFC4FD491F901EB5CFC4FC4915C
:1007D000CC23A1F081110E94AF03EC2FF0E0EE0FCB
:1007E000FF1FE95EFC4FA591B491EC91ED2381E0F0
:1007F00090E009F480E0DF91CF91089580E090E0EF
:10080000FACF1F93CF93DF93282F30E0F901E15EF9
:10081000FD4F8491F901E75BFC4FD491F901EB5C4A
:10082000FC4FC491CC23A9F0162F81110E94AF0375
:10083000EC2FF0E0EE0FFF1FEB5EFD4FA591B491A2
:100840008FB7F894EC91111108C0D095DE23DC939A
:100850008FBFDF91CF911F910895DE2BF8CFCF93FB
:10086000DF9390E0FC01E75BFC4F24918B5C9C4F95
:10087000FC0184918823C9F090E0880F991FFC0146
:10088000EB5BFD4FA591B491FC01EB5EFD4FC59173
:10089000D49161110DC09FB7F8948C91209582235B
:1008A0008C938881282328839FBFDF91CF9108955F
:1008B000623051F49FB7F8943C91822F8095832346
:1008C0008C93E8812E2BEFCF8FB7F894EC912E2BE1
:1008D0002C938FBFEACF4115510529F4EAE7F0E0E8
:1008E00080818F7780836A307105B9F0CB01880FE2
:1008F000991F880F991F807267706860682B88E164
:100900000FB6F894A895809360000FBE60936000C6
:10091000E0E6F0E0808180648083232BD9F483B704
:10092000817F846083BFF89483B7816083BF85B77C
:10093000806685BF8F7D85BF7894889583B78E7FCD
:1009400083BF7894452B29F4EAE7F0E08081806842
:100950008083089583B7817F846083BFF89483B7D1
:10096000816083BF7894889583B78E7F83BF7894A6
:10097000E9CF61E08AE00C9401048CE00E94D80386
:10098000892BD9F7089560E08AE00C940104EFE622
:10099000F0E0808181608083089582508B3030F454
:1009A000E82FF0E0E65FFE4F808108958FEF089515
:1009B000843030F4E82FF0E0EB5EFE4F8081089544
:1009C0008FEF0895FC01108608950F931F93CF9326
:1009D000DF9321E431E0FC01318320838C01045B4F
:1009E0001F4F79F0EC01CC53DF4F0C171D0749F076
:1009F0006E97E881F9810280F381E02DCE0109959F
:100A0000F4CFDF91CF911F910F9108950895811137
:100A100004C0E8EEF1E0849108958FEF08958330EB
:100A200030F4E82FF0E0ED55FD4F849108958FEFFD
:100A30000895FC018289938961E0911101C060E011
:100A40000C94010480E008950895E0918D01F091E7
:100A50008E01838581FD03C083858C608387089523
:100A60000895089508950895089508950C947403C1
:100A70000E94360580EA90E00C9436050F931F9390
:100A8000CF938C01C62F8BEC91E06430A1F058F429
:100A90008EED91E0623079F085ED91E0633059F0B0
:100AA0008FEA91E008C08EEB91E0653021F080EB99
:100AB00091E06630A9F70E943805C770F80180857B
:100AC000887FC82BC087CF911F910F910895982FD1
:100AD000FB0180E02491291729F08F5F319648139C
:100AE000F9CF8FEF089541E068EE71E00C9467054F
:100AF00043E063EA72E00C946705862728E0BC01B6
:100B000076956795AC014170552780FF02C041E0A2
:100B100050EACB0184279527215089F70895FC01DD
:100B20008081811109C08181811106C081E092819B
:100B3000911103C080E0089581E00895DC01FB017C
:100B40009C91808198130BC011969C911197818183
:100B5000981305C081E012962C919281291380E0B0
:100B60000895CF93DF93EC01FB0180818F83818116
:100B700088878281898769E672E0CF010E949E059D
:100B8000882321F08A818F7D84608A83DF91CF91D1
:100B90000895FC013381FB012381321302C00C94C0
:100BA0009E0580E00895CF93DF9300D000D0CDB7AD
:100BB000DEB7FC0180899485998395859A83968513
:100BC0009B838C83882389F0BF01645F7F4FCE01B4
:100BD00001960E94C905811108C082E00F900F9014
:100BE0000F900F90DF91CF91089581E0F7CF2FB74D
:100BF000F894FC01808191812FBF0895FF920F939B
:100C00001F93CF93DF93EC018B01FFB6F8940E9402
:100C1000F7059C019FB7F894F801318320839FBFAB
:100C20008FB7F894198308838FBFFFBEDF91CF91F0
:100C30001F910F91FF9008956F927F928F92DF9294
:100C4000EF92FF920F931F93CF93DF937B0122E0EC
:100C5000E20EF11CDB0115962D913D914C91232B59
:100C6000242B09F44FC0EB018C01DFB6F8949C8172
:100C70009F7090619C83C8010E94F705009709F45A
:100C80003EC0FC013297A1F06580768087802D817F
:100C90003E814F81CF01029662167306840650F49E
:100CA0002619370948092D833E834F838C01E4CFF1
:100CB00090E080E02FB7F8949B838A832FBF8FB793
:100CC000F894D801ED92FC928FBF309761F0858146
:100CD0009681A7812D813E814F81821B930BA40BAE
:100CE00085839683A783DFBEDF91CF911F910F91FC
:100CF000FF90EF90DF908F907F906F900895F0E0DD
:100D0000E0E0D8CFB7010296DF91CF911F910F910C
:100D1000FF90EF90DF908F907F906F900C94FE0586
:100D20001F93CF93DF93EC01FB012885922F9770DF
:100D3000943079F040F4923051F0933039F1DF91F2
:100D4000CF911F910895953009F19630C1F711E0C8
:100D500012C023FD21C02A853B852550310913E0AF
:100D60002115310541F040E02D833E834F83BE01C4
:100D7000CF010E941C06E881F9810680F781E02DF1
:100D8000612FCE01DF91CF911F91099423FDD7CF21
:100D90002A853B8515E0E4CF25E030E012E0E3CF83
:100DA000FF920F931F93CF93DF93EC018B01E889A0
:100DB000FF24F394FE0EF88AE80FF92FF11D228527
:100DC00030E0A4E6B0E00E9425222AE030E040E0D6
:100DD00050E00E9403222D833E834F83F0FE11C01A
:100DE0008A899B8960E0911101C061E00E94010441
:100DF000BE01C801DF91CF911F910F91FF900C941C
:100E00001C06CE010E941905F3CFEF92FF920F93BB
:100E10001F93CF93DF93EC01FFB6F8940E94F70580
:100E20008C01892B71F0EFB6F894CE010E94F70582
:100E30000E94F7059C019FB7F894398328839FBFD0
:100E4000EFBEFFBEC801DF91CF911F910F91FF90C0
:100E5000EF900895BF92CF92DF92EF92FF920F939F
:100E60001F93CF93DF93EC01FFB6F8948C818F70C2
:100E70008C8381E792E00E94F7050097C9F19C01FD
:100E80002250310981E792E02115310589F189016C
:100E90000E5F1F4FC217D30709F50E940507C8014F
:100EA0000E94F705009779F0FC01329761F0858187
:100EB0009681A7812D813E814F81820F931FA41FB0
:100EC00085839683A783FFBEDF91CF911F910F91FA
:100ED000FF90EF90DF90CF90BF900895C8010E94DF
:100EE000F705009729F09C0122503109C801CCCFA9
:100EF0006E0182E0C80ED11CEFB6F894BFB6F8942C
:100F000083E792E00E94F705EC0123E732E02097A7
:100F100079F010E000E0CC16DD0609F48901CE017D
:100F20000E94F7059E010115110521F4EC01EFCF98
:100F300010E000E0BFBE0115110511F4EFBEC3CFF4
:100F4000C8010E940507FACFEF92FF920F931F93FB
:100F5000CF93DC0118960D911C91F80181850E94B8
:100F6000D803D8011896CC911897C3FBEE24E0F86B
:100F7000F12C8E151F04C9F180FBC3F91896CC9390
:100F8000C770C33031F0C53021F0C130C1F4C4E0C6
:100F900007C0F801808583FF12C0C33021F1C6E08D
:100FA000C8010E942A0785E090E0A0E0F80185834F
:100FB0009683A783B80181E792E00E941C06D801BE
:100FC00018968C91189787708C1779F0ED91FC9199
:100FD0000680F781E02D6C2FC801CF911F910F91F2
:100FE000FF90EF900994C2E0DBCFCF911F910F915A
:100FF000FF90EF900895CF93DF93EC012C96CE01F4
:101000000E942A07BE0181E792E0DF91CF910C9404
:101010001C068091C9029091CA020C94FB07809132
:10102000CB029091CC020C94FB078091CD02909161
:10103000CE020C94FB078091CF029091D0020C94C9
:10104000FB0785E792E00C94FB078F929F92AF928B
:10105000BF92CF92DF92EF92FF92CF93DF93EC019A
:101060004A015B0181E792E00E94F7050097B9F41D
:1010700081E08887CE010E942A078D829E82AF82FE
:10108000BE0181E792E0DF91CF91FF90EF90DF907A
:10109000CF90BF90AF909F908F900C941C060297BA
:1010A000C12CD12C7601009719F3FC0125813681E2
:1010B0004781642FA90170E0C40ED51EE61EF71EFD
:1010C000C817D90739F002960E94F705009781F2F8
:1010D0000297E9CFC814D904EA04FB0448F2DF916F
:1010E000CF91FF90EF90DF90CF90BF90AF909F9007
:1010F0008F900895CF92DF92FF920F931F93CF931B
:10110000DF938C01FFB6F8940E94F705009771F108
:10111000EC01229759F18D819E81AF810197A10940
:101120008D839E83AF83680182E0C80ED11C8D81C0
:101130009E81AF81892B8A2BC9F4C8010E940507C3
:101140008C81982F9F7080FF1BC09C83E881F98160
:101150000190F081E02DB801CE010995C8010E94EF
:10116000F705009719F0EC01229709F7FFBEC801B7
:10117000DF91CF911F910F91FF90DF90CF90089555
:10118000BE016E5F7F4FC6010E94FE05E7CFCF9381
:10119000DF93EC0102960E9405070097B9F0DC018D
:1011A0001297A1F014968C9114978F7014968C93CB
:1011B0001497ED91FC9111970190F081E02DBE0103
:1011C000CD01099581E0DF91CF91089580E0FBCFBB
:1011D00008958EBD00000DB407FEFDCF8EB50895B5
:1011E00081E591E00E9471020E94C30480E00E94A8
:1011F000E9080C94B904CF93DF93D82FC62F81E56B
:1012000091E00E9471020E94C3048D2F0E94E908A0
:101210008C2F0E94E908DF91CF910C94B904CF93F1
:10122000C82F81E591E00E9471020E94C3048C2FB7
:101230000E94E908C82F0E94B9048C2FCF9108950D
:1012400086E30E940F098DE30E940F098AE30C9444
:101250000F091F93CF93DF93FC01238520FF0DC05F
:10126000162FEC010E94F00811110E94200984E35E
:101270000E940F098B858E7F8B87DF91CF911F9105
:101280000895CF93DF93D82FC62F81E591E00E9478
:1012900071020E94C3048D2F8C2B0E94E90880E00C
:1012A0000E94E908C82F0E94B9048C2FDF91CF91CA
:1012B00008958F929F92AF92BF920F931F93CF93F7
:1012C000DF93CDB7DEB7A1970FB6F894DEBF0FBEA0
:1012D000CDBF19A2423008F44AE08E010F5D1F4FC6
:1012E000842E912CB12CA12CA50194010E940322E3
:1012F000E62FB901CA01EA3044F5E05DD801EE936A
:101300008D01232B242B252B79F790E080E010977B
:1013100069F0FD0101900020E9F73197AF014A1B08
:101320005B0BBD0183EC91E00E948702A1960FB692
:10133000F894DEBF0FBECDBFDF91CF911F910F910B
:10134000BF90AF909F908F900895E95CD7CFCF93D7
:10135000C82F803128F460E383EC91E00E942703DA
:101360006C2F70E090E080E040E1CF910C9459093F
:10137000EF92FF920F931F93CF93DF93EC0188813D
:101380000E94A7098EE990E00E94360589810E949B
:10139000A7098CE990E00E9436058A810E94A7097E
:1013A0008AE990E00E9436058B810E94A70988E9AE
:1013B00090E00E9436058C810E94A7098D810E94D1
:1013C000A7098E810E94A70986E990E00E94360550
:1013D0008F810E94A70988850E94A70989850E949C
:1013E000A70984E990E00E943605088109502A96F1
:1013F0007E0110E0C7018C1B9D0B8017910754F4F0
:10140000F70181917F010E94A7098BE890E00E947B
:101410003605F0CF80E990E00E9436052FB7F894AA
:10142000609188017091890180918A0190918B016E
:101430002FBF4AE00E9459098DE890E0DF91CF91DB
:101440001F910F91FF90EF900C943605CF92DF9291
:10145000EF92FF926B017C0180E1C816D104E10498
:10146000F10468F483E890E00E94740340E1C7014E
:10147000B601FF90EF90DF90CF900C9459098FEF59
:10148000C816D104E104F10409F018F48CE790E0E7
:10149000EBCFC11480E1D806E104F10418F486E72B
:1014A00090E0E2CFC114D10481E0E806F10418F421
:1014B00081E790E0D9CFC114D10480E1E806F104BE
:1014C00018F48DE690E0D0CFC114D104E10481E09E
:1014D000F80618F48AE690E0C7CFC114D104E104FD
:1014E00080E1F80618F688E690E0BECF0F931F93D0
:1014F000CF93DF93D82FC62F142F0E94FB0860E8EC
:101500008D2F0E944109082F81E0C01771F011232F
:1015100089F04FEF410F6C2F8D2F0E94760AEFE973
:10152000FFE03197F1F700C00000DF91CF911F91EC
:101530000F9108958DE093E00E9436058D2F0E9453
:10154000A70981E093E00E9436058C2F0E94A7092D
:1015500089EF92E00E943605802F0E94A70986EF4E
:1015600092E00E94360580E0E0CFCF92DF92EF92CA
:10157000FF9280917C00807380937C0080917C003E
:10158000806480937C0080917C008E6080937C00DE
:1015900087E795E00197F1F700C0000080917A009D
:1015A000806480937A0080917A0086FDFCCF209140
:1015B00078003091790050E040E060E070E381E134
:1015C00090E00E94032269017A0189EE91E00E9475
:1015D0003605C701B601882799274AE00E945909B4
:1015E00088EB92E00E943605C601FF90EF90DF90F5
:1015F000CF900895CF93DF93EC01CB0128853985F7
:101600004A852D833E834F83BE010E941C060E94A3
:10161000B50A2F853889232B29F02F853889821721
:10162000930710F4988B8F87DF91CF910895CF9314
:10163000DF931F92CDB7DEB7FC0180819181680FE7
:10164000792F711D498341E050E0CE0101960E943F
:101650007F2181E00F90DF91CF910895EF92FF926B
:101660000F931F93CF93DF931F92CDB7DEB78C01FB
:101670007B01E80EF91E198241E050E0B801CE016D
:1016800001960E947F210F5F1F4FE016F10699F728
:1016900081E00F90DF91CF911F910F91FF90EF901C
:1016A00008958FE092E00E94380564E070E090E0D9
:1016B00080E00E942E0BF0E0E0E00994CF93DF93EE
:1016C0001F92CDB7DEB7198241E050E0BC01CE01D8
:1016D00001960E946F2189810F90DF91CF9108952B
:1016E0000F931F93CF93DF93EC010A8D1B8D43E083
:1016F00063EA72E084E00E9467058F3FF9F0800F93
:10170000912F911D0E945E0B82958F7094E6899FA8
:10171000D0011124A45DBE4F24E630E00E943422A3
:1017200028EE33E040E050E00E9403223B872A8706
:1017300081E0DF91CF911F910F91089581E0E6CF75
:10174000CF93DF93EC0141E068EE71E081E00E940D
:1017500067058F3F59F028813981820F932F911DA2
:101760000E945E0B8170DF91CF91089580E0FBCFE6
:10177000EF92FF920F931F93CF93DF93EC018B01B6
:10178000FB018081918103960E945E0BF82EF80187
:101790008081918102960E945E0BE82EF801808183
:1017A000918101960E945E0B8883E982FA82CE01C4
:1017B000DF91CF911F910F91FF90EF900895CF93FC
:1017C000DF93EC01CB011A82198218821B82642FED
:1017D00004960E947702009731F044E050E0BC018B
:1017E000CE010E946F21CE01DF91CF910895CF925B
:1017F000DF92EF92FF921F93CF93DF9300D000D040
:10180000CDB7DEB77C016B0110E0412FB701CE01EF
:1018100001960E94DF0BBE016F5F7F4FC6010E94E1
:101820009E05811104C01F5F1A3079F71FEF812FC9
:101830000F900F900F900F90DF91CF911F91FF901D
:10184000EF90DF90CF900895CF92DF92EF92FF92CA
:101850001F93CF93DF9300D000D0CDB7DEB77C01CC
:101860006B0110E0412FB701CE0101960E94DF0B02
:10187000B601CE0101960E94C905882391F0612F1F
:10188000C70104960E94770204960F900F900F9064
:101890000F90DF91CF911F91FF90EF90DF90CF904D
:1018A00008951F5F1A30F1F690E080E0EECFCF93FD
:1018B000DF9300D000D000D01F92CDB7DEB721114A
:1018C00020C0FC0182AD93AD9A83898384E08B8331
:1018D00088ED94E09D838C838DEC94E09F838E83D0
:1018E00029813A814B815C816D817E818F8190E07D
:1018F00027960FB6F894DEBF0FBECDBFDF91CF9114
:101900000895662359F1FC0131AD361770F1E62FC9
:10191000F0E07D96EE0FFF1FE80FF91F80819181A7
:10192000213081F4FC01828D938D28E735E04FE072
:1019300055E063E09A8389836B835D834C833F83A7
:101940002E83CECF243089F4BA0146960E94240C0F
:1019500023E735E047E055E061E0ECCF30E020E000
:1019600050E040E090E080E0E5CF30E020E050E063
:1019700040E060E0F7CFEF92FF921F93CF93DF93A9
:1019800000D000D0CDB7DEB77C0110E0412FB70109
:10199000CE0101960E94DF0BCE0101960E948F05B9
:1019A000882321F01F5F1A3089F71FEF812F0F90D6
:1019B0000F900F900F90DF91CF911F91FF90EF90BC
:1019C0000895AF92BF92CF92DF92EF92FF921F9352
:1019D000CF93DF9300D000D0CDB7DEB77C016B0191
:1019E00010E05C0184E0A80EB11C412FB701CE01CC
:1019F00001960E94DF0BB601CE0101960E94C90537
:101A0000882379F01B821A8219821C82612FC501FA
:101A10000E94770244E050E0BC01CE0101960E9492
:101A20007F211F5F1A3009F781E00F900F900F9010
:101A30000F90DF91CF911F91FF90EF90DF90CF90AB
:101A4000BF90AF900895AF92BF92CF92DF92EF9286
:101A5000FF920F931F93CF93DF938C016B01DC01F7
:101A60001B968C911B978B7F1B968C937801BDE006
:101A7000EB0EF11C60EC8BE30E94410918160CF090
:101A800044C060E88FE30E944109C82F8A3208F001
:101A90006DC081E591E00E9471020E94C3048FEF46
:101AA0000E94E908DE2D57018A2D8D1B8C1738F412
:101AB00080E00E94E908F50181935F01F5CF0E9463
:101AC000B90460E88FE30E944109282F30E0082E16
:101AD000000C990B88279170A901481B590BCA016A
:101AE00057FD019695958795919581959109865B0E
:101AF000D80111968C9360E88FE30E94410987FD1D
:101B000005C084E092E00E943805C0E08AE30E94AC
:101B10000F09E7EFF2E03197F1F700C000000E94F3
:101B2000200984E30E940F09CC23D1F1D8011C962F
:101B3000CC931C971D968C911D9796E798271D9620
:101B40009C9321E04C2F50E0BA0161507109A22F03
:101B5000B0E0F701EA0FFB1F9081A617B707B4F4B6
:101B60008452892780832F5F892FF1CF83EF91E003
:101B70000E9436056C2F70E090E080E04AE00E9401
:101B8000590980EF91E00E943605BFCFD8011E961B
:101B90008C9189278083B701C60101960E94732327
:101BA000F601C083D8011C961C9260E0C8010E9417
:101BB0002909F6018081DF91CF911F910F91FF904C
:101BC000EF90DF90CF90BF90AF9008950F931F9349
:101BD000CF93DF9300D01F92CDB7DEB78B0143E0E8
:101BE00050E0BC01CE0101960E9466219A818B8152
:101BF0002981F8012083918382830F900F900F90A9
:101C0000DF91CF911F910F9108951F93CF93DF9391
:101C1000EC011FB7F89498898885981740F4CE0195
:101C20000E94D0061FBFDF91CF911F910895188A9F
:101C300099859923A1F389898F5F898B891778F317
:101C4000CE010E94190548E050E067E671E0CE0140
:101C500008960E946621E6CFEF92FF920F931F93A2
:101C6000CF93DF93EC017B018A010E942A07CE010A
:101C70000E941905B70183E0660F771F8A95E1F787
:101C8000600F711F48E050E0CE0108960E94662167
:101C90008885882369F0188A198A61E772E0CE0185
:101CA000DF91CF911F910F91FF90EF900C94D00690
:101CB000DF91CF911F910F91FF90EF9008950F93B7
:101CC0001F93CF93DF93EC018B014BEE50E0019615
:101CD0000E942C0E43EA50E0B801CE014596DF91F8
:101CE000CF911F910F910C942C0E2F923F924F92F7
:101CF0005F926F927F928F929F92AF92BF92CF929C
:101D0000DF92EF92FF920F931F93CF93DF93CDB7A4
:101D1000DEB7AF970FB6F894DEBF0FBECDBF6C0134
:101D20008B01BA01C8010E94B105B8016C5F7F4FF9
:101D3000F60187A990AD0E94E60DF80182818068C6
:101D40008283F6018281938162E070E001960E94B5
:101D50005F0E36E0932EC80101969FA78EA74AE03A
:101D6000642E712C812CF8013796FDA7ECA7F601A3
:101D7000E280F3805701F4E4AF0EB11CF8018281D8
:101D800080718BA72701F0E54F0E511C12012FEF38
:101D9000221A320AF801408150E06EA57FA5C101E8
:101DA0000E947323F8012081F2012083F1018081D8
:101DB00096E7892780833196908161E02150330B2B
:101DC000462F50E0F101E40FF51F708142175307D1
:101DD0002CF48452872780836F5FF2CF892F872767
:101DE0008083F2014080B5016E5F7F4FF701EA5BAF
:101DF000FF4F5084552039F08FE99FE00197F1F7AC
:101E000000C00000F6CF65827682878291E09087DD
:101E100081E792E00E941C0661E0C5010E94290949
:101E2000F50183858260838786E30E940F098BE337
:101E30000E940F0928ECF22E85E30E940F098FE81B
:101E400091E00197F1F700C00000FA94F1104AC048
:101E500086E30E940F098BE30E940F098DE30E9425
:101E60000F0984E30E940F0960EC85E30E94410999
:101E70008D30B9F7F12CF50183858D7F838782E45E
:101E800091E00E943605C8010E94B8099A94FF208B
:101E900009F4E2C0F801828185FD6EC0F6018281FD
:101EA000938101965524539463E070E00E945F0E85
:101EB000852DAF960FB6F894DEBF0FBECDBFDF9174
:101EC000CF911F910F91FF90EF90DF90CF90BF9037
:101ED000AF909F908F907F906F905F904F903F90CA
:101EE0002F90089560EC85E30E944109833109F049
:101EF000A3CFEFE3FCE93197F1F700C00000FBA5A9
:101F0000FF2349F02FEF86E191E12150804090407E
:101F1000E1F700C00000642D8FE30E94FB0881E51B
:101F200091E00E9471020E94C3048FE70E94E908B9
:101F30002BA671018E2DEBA58E1B841530F4F701B5
:101F400081917F010E94E908F5CF0E94B90498ECC5
:101F5000F92E60EC85E30E9441098D3019F4FF24CD
:101F6000F39489CF8FE891E00197F1F700C000006A
:101F7000FA94F110EECFF3CF8CA59DA50E948F05AA
:101F8000882309F48BCF19821A821B821C821F823C
:101F90001E821D821A86198618861B861C868CE373
:101FA000F82EF601828193818C5B9F4FFC01238583
:101FB00022FD0BC08FE39CE90197F1F700C0000000
:101FC000FA94F110EECFF12C3AC0BE016F5F7F4F53
:101FD0000E94230D882371F383E391E00E9436056C
:101FE000CE0101960E94B809F80191818A81981367
:101FF000E1CFBE016B5F7F4F8CA59DA50E949E0522
:102000008823C1F28C81F12C823041F48B85F82E2B
:10201000F094FF1CFF24FF1C87FD912CF8018281A6
:1020200081FD03C08B8180FF0AC0F601828193810C
:1020300042E350E060E070E0CB960E94250888E320
:1020400091E00E9436058F2D0E94A70987E391E059
:102050000E943805F11022CF911089CEF6018281BD
:102060009381019664E070E021CF0F931F93CF938B
:10207000DF93EC018B018AE18B871E861D864C87DE
:102080001E8A6FA978ADFB01719684913197E49116
:10209000ED8B8AA3625F7F4F42E050E0CE0146960F
:1020A0000E9466216FA978AD6D5F7F4F4AE050E0D6
:1020B000CE0148960E94662189AD8BA36FA978ADA9
:1020C0006E5E7F4F42E050E0CE0184960E94662112
:1020D000BE01655F7F4FA801CE01DF91CF911F91B7
:1020E0000F910C94750EEF92FF920F931F93CF9365
:1020F000DF9300D01F92CDB7DEB78C01E62EDC0156
:1021000018968C918770F82EC8010E943E05B2E0A7
:10211000EB1236C0F80106891789D8011696FC9093
:102120001697F3941696FC92169714966D917C91DF
:10213000CE0101960E94B80B4F2DBE016F5F7F4FFD
:10214000C8010E943510F8018281938161E070E03E
:1021500001960E945F0ED80112968D919C9140EDE0
:1021600057E060E070E0CB960E9425080F900F903A
:102170000F90DF91CF911F910F91FF90EF900895F5
:10218000B5E0EB12F3CFFB1203C00E94510BEECF70
:10219000D8015696ED91FC918281938167E070E0C1
:1021A00001960E945F0EE2CF2F923F924F925F9274
:1021B0006F927F928F929F92AF92BF92CF92DF9257
:1021C000EF92FF920F931F93CF93DF93CDB7DEB7BC
:1021D00029970FB6F894DEBF0FBECDBF7C01D62E77
:1021E000DC0159968C910E94A7096D2DC7010E94B0
:1021F0003E05F701068917895801FBE0AF0EB11CB7
:10220000D8011296ED91FC9181AD92ADC29664E633
:1022100070E00E94EF2146A9F701348D818DD8012D
:1022200016969C9116979F5F16969C932BEF2D0DFB
:10223000223008F078C020E4641708F420684BE0EE
:10224000F801438740E4468742E245878F73822B3B
:10225000858B9487368B8D2D8B7F823009F0C2C0A1
:10226000D7015696CD90DC90912C812C212C3701F2
:10227000B6E16B0E711C2801EFE04E0E511CFAE026
:102280008F16910409F479C0482DB301CE0101964F
:102290000E94DF0BCE0101960E948F05382E882305
:1022A000F1F1BE016F5F7F4FC3010E94F70B8815EC
:1022B0001904ACF11F821E821D82BE016B5F7F4F2D
:1022C000D601D7968D919C910E94E60DBE016B5F61
:1022D0007F4FCE0101960E949E05882381F1B201B5
:1022E000F60187A990AD0E94E60DB201C5010E94DA
:1022F000B105D8011D968C911D9785FF16C08F7D65
:102300001D968C93D601ED91FC910680F781E02D0E
:10231000B501C6010995F801858580628587BFEF03
:102320008B1A9B0AACCF20E087CFD601ED91FC91B0
:102330000680F781E02DB501C6010995F0CFBE01F9
:102340006F5F7F4FC3010E94240C9E838D83CE015B
:1023500005960E94A00BF8019585882359F090619D
:102360009587AE014F5F5F4FB501C6010E94750EA4
:10237000232CD5CF9F7E9587F4CF21100EC0F60178
:1023800064817581CE0101960E94B80BAE014F5F4A
:102390005F4FB501C6010E94750ED60112968D9150
:1023A0009C9185589F4F0E947A08F701848D8F5F1A
:1023B000848F29960FB6F894DEBF0FBECDBFDF9194
:1023C000CF911F910F91FF90EF90DF90CF90BF9032
:1023D000AF909F908F907F906F905F904F903F90C5
:1023E0002F900895F5E0DF12E4CFD7015696CD90F7
:1023F000DC904801BFE08B0E911CB401F60187A967
:1024000090AD0E94E60DD8011D968C911D978F7D91
:102410001D968C93B6E1EB0EF11CB401C7010E942E
:10242000F70B8A3068F4B401C5010E94B105D601EA
:10243000ED91FC910680F781E02DB501C60109956B
:102440001F821E821D82612C712C472DB701CE0187
:1024500001960E94DF0BCE0101960E948F05882312
:1024600009F1BE016F5F7F4FC4010E949E0581117B
:1024700019C0CE0105960E948F05811106C0898181
:102480008D838A818E838B818F83BE016F5F7F4FA7
:10249000C7010E94240C99878887CE0108960E9464
:1024A000A00B682A7394BAE07B12CFCFCE010596B9
:1024B0000E948F0581110DC0F60164817581CE01E6
:1024C00001960E94B80B89818D838A818E838B81CE
:1024D0008F83D8011D968C911D976620C9F080616D
:1024E0001D968C93D8011D968C911D9784601D9626
:1024F0008C93AE014B5F5F4FB501C6010E94750E14
:10250000F6018281938185589F4F0E947A0851CFAE
:102510008F7EF8018587E6CF2F923F924F925F9290
:102520006F927F928F929F92AF92BF92CF92DF92E3
:10253000EF92FF920F931F93CF93DF93CDB7DEB748
:10254000E4970FB6F894DEBF0FBECDBF7C018B01C0
:1025500019AA18AA1FA6BE01615D7F4FDC01D7969C
:102560008D919C910E94E60D2801B7E04B0E511C05
:10257000BE01615D7F4FC2010E949E05C82E882367
:1025800009F461C0F701C280D3805601F6E4AF0EB2
:10259000B11CC5010E942A07F5018AE090E0A0E085
:1025A00085839683A78381E08087B50181E792E0E8
:1025B0000E941C0683E691E00E943605C8010E9435
:1025C000B809D80112968C9186FD95C0D801149651
:1025D0008C911497F701878315968C9115978087B6
:1025E00016968C911697818711968C9111978287F8
:1025F00013968C9113971A96BC901A971B963C9041
:10260000813009F0B2C3FAE03F1288C0D701D796F3
:102610006D917C916D5F7F4F4AE050E0CE01019655
:102620000E9466214AE050E0BE016F5F7F4FC80103
:102630000C960E946623892B09F4EDC0D12CC12C85
:1026400082E0382EA6C0F8018081898381818A8347
:10265000B280BB82D380DC8284818D8385818E832E
:1026600086818F83878188878085898781858A870E
:1026700082858B87A384AC868EE13C96DE011D9615
:1026800001900D928A95E1F769E672E0CE01089615
:102690000E949E05882339F0F1E0DF1204C02AE091
:1026A000A21609F46FCFB2FE05C080EC8D0D82300A
:1026B00008F468CF8BE591E00E943605C8010E94BE
:1026C000B8098C2DE4960FB6F894DEBF0FBECDBFCF
:1026D000DF91CF911F910F91FF90EF90DF90CF90FE
:1026E000BF90AF909F908F907F906F905F904F9032
:1026F0003F902F900895B8016C5F7F4FC7010796F8
:102700000E949E05882309F461CFD7011A969C91F7
:10271000F801818198135ACFC12CD3CFB1E03B127D
:10272000DBC0BB2009F48ACFD701D9968C918B15D9
:1027300008F484CFEB2DF0E07D96EE0FFF1FEE0D39
:10274000FF1DC080D180C8010E94D3054801BCE0B4
:102750008B0E911C5601E6E1AE0EB11C813009F0E2
:1027600079C0B401C5010E94E10CC5010E94BB0CF7
:102770008F3F09F465CF682FC6014A960E94770201
:1027800044E050E0BC01C4010E947F21C6010E94C8
:10279000700BD80112968C9185FF2FC0BE01615D30
:1027A0007F4FC2010E949E05882339F1B1E03B12A0
:1027B000ACC3A8014C5F5F4FC114D10409F494C3AA
:1027C000D7011296ED91FC91EB5BFF4F80819EE06B
:1027D000F801908392E0938312823286D601599653
:1027E0009C919387148615868687B801C7010E943D
:1027F000750EF601808D8E7F808FD70112968D9198
:102800009C9142E350E060E070E0CB960E94250886
:10281000CC24C39456CFF7018281938161E070E0AC
:1028200001960E945F0ED70112968D919C9140ED0A
:1028300057E060E070E0CB960E942508F8014081E7
:10284000B8016C5F7F4FC7010E943510D12CC12C9D
:10285000312C9FCFD80150968C9150971C969C910B
:102860001C9799831D969C911D979A831E969C9107
:102870009B838C83B401C5010E94E10CBE016F5F94
:102880007F4FC5010E94E10CC5010E94BB0C8F3F28
:1028900009F4D6CE3601BAE16B0E711C682FC30164
:1028A0000E94770244E050E0BC01C4010E947F21F5
:1028B000C5010E94BB0C8F3F51F0682FC3010E94DD
:1028C000770244E050E0BC01CE0101965DCFB40137
:1028D000C5010E94E10CB4CEE2E03E123BC0BB2039
:1028E00009F4ACCED701D9968C918B1508F4A6CEFD
:1028F000EB2DF0E07D96EE0FFF1FEE0DFF1DC0806B
:10290000D1805601B6E1AB0EB11CB801645F7F4FB8
:10291000C5010E94E10C982EC8010E94D3058230A7
:1029200081F4F80180899485998395859A839685A9
:102930009B838C83BE016F5F7F4FC5010E94E10CBA
:102940009822992009F425CFC6010E94700B3324E8
:1029500033941FCFF3E03F127BC0BB2009F4FBC0D0
:10296000D701D9969C91D9979B1508F46FCFEB2D81
:10297000F0E07D96EE0FFF1FEE0DFF1D6080718071
:10298000F801918124812BA725812CA726812DA7D1
:102990005701FBE0AF0EB11C2AE11B962C931B974D
:1029A00020E11E962C931E9720E21D962C931D97D6
:1029B00055968C9355971C969C93470126E1820E61
:1029C000911C6401212C312C46E1640E711C5AE0EB
:1029D000251641F1422DB301CE0101960E94DF0B75
:1029E000CE0101960E948F058823D1F0339484E0B4
:1029F000FE013196D60101900D928A95E1F784E0AF
:102A0000C80ED11C94E039120BC0AE01455D5F4F7A
:102A1000B501C7010E94750E6401312C882311F0A5
:102A20002394D5CF84E0D6011D928A95E9F7832DB2
:102A3000880F880F825FF701838785858F7D858763
:102A4000AE01455D5F4FB501C7010E94750EFECE18
:102A5000F4E03F1282C0D80150962C91A801445F47
:102A60005F4F6B2DC7010E94570C29833A834B831C
:102A70005C836D837E838F83E981FA81FCABEBAB52
:102A800072E0372EEF2B09F4CEC0D80111968C914D
:102A9000119714969C9114979BA715969C91159746
:102AA0009CA716969C919DA73701BBE06B0E711CED
:102AB0009AE1F701938790E1968790E2958792E0FB
:102AC000958B84871701F6E12F0E311C6101B12C23
:102AD000A12C1AAA8B818A151B0451F14CF1EC81AF
:102AE000FD818A2D0995D6018C934601B2E08B0EAB
:102AF000911C8BA99CA98A0D9B1D0E945E0BF6015F
:102B00008183FAA9FF5FFAABF83059F4AE01455D55
:102B10005F4FB301C7010E94750E882339F0410150
:102B20001AAA2FEFA21AB20A6401D4CF61011AAA1D
:102B3000D6011C9211961C928AA98A5F880FF70110
:102B4000838785858F7D8587AE01455D5F4FB301A6
:102B5000C7010E94750E312C66C0FEE03F1244C0D2
:102B6000EB2DF0E07D96EE0FFF1FEE0DFF1DC080F8
:102B7000D180D80111962C91D7011296ED91FC913C
:102B80001397EB5BFF4F8081F601918D1B963C9272
:102B90001B9730E11E963C931E9736E055963C936A
:102BA00055971C962C931C9756969C935697579620
:102BB0001C92579758961C92589759968C935997F0
:102BC00082E01D968C93A8014C5F5F4FB701655F53
:102BD0007F4FC7010E94750ED60158968C91589769
:102BE0008E7F58968C9332CEB5E03B121FC0F70112
:102BF000EC5BFF4FB0826701E5E4CE0ED11CD8013B
:102C000050962C91A801445F5F4F6B2DC7010E9425
:102C1000570CF60120833183428353836483758389
:102C2000868333243394D12CC12CB3CDF6E03F12EC
:102C30003FC0F701EB5BFF4F20813181D701DA966E
:102C40008D919C91DB9731976F012817390721F5FA
:102C500012968D919C9170E060E001960E945F0E4B
:102C6000D701ED91FC910480F581E02DC701099514
:102C70008FEFF60180838AE0D8018C9382E013966F
:102C80008C93139712968C9312971A961C92A80104
:102C90004C5F5F4FB801D8CEE081F0E07D96EE0F3B
:102CA000FF1FEE0DFF1D808191810E94700BE0CF10
:102CB000B8E03B123AC0F701EC5BFF4F80818B110B
:102CC000B0CF5701E5E4AE0EB11CD5018D919C91BA
:102CD000892B09F4A6CFF80180818B3008F48BE0B2
:102CE00045EF342E380E4801FCE08F0E911C640134
:102CF00037012AE4620E711C8C2D8819831508F0A7
:102D000090CFD60111962C90D301ED91FC91D60174
:102D10008C9109958F3F29F0422D682FC5010E94A3
:102D2000170BB2E0CB0ED11CE7CFE9E03E1286CC08
:102D3000D80111968C9194E1F701938790E19687E1
:102D40001586158A8487168A67A970AD6D5F7F4FD7
:102D50004AE050E0C70146960E946621A8014C5FF8
:102D60005F4FB701655F7F4F6FCE813109F066C05D
:102D7000F4E0BF1619F02AECB21228C08AE0D8019C
:102D80008C9382E013968C93139712961C92129751
:102D90001A961C92A8014C5F5F4FB801C7010E94B0
:102DA000750EBAECBB120FC086E491E00E943805A4
:102DB00088E19CE00FB6F894A895809360000FBE60
:102DC00090936000FFCF0E94510B40CD332009F457
:102DD0002ACFF70181AD831508F438CDE32DF0E05B
:102DE0007D96EE0FFF1FEE0DFF1DC080D180F2E03B
:102DF000BF16F1F0FB1550F0BB2091F021E0B212AC
:102E000027CDF601808D8260808FA1CD43E0B4167E
:102E100009F49DCD50E8B5121BCDF601808D0BC095
:102E2000D60158968C9158978D7F58968C938FCD5C
:102E3000D60158968C9181FF03CC0ACD823139F4AA
:102E400081E591E00E943805D12CC12C80CD8054C1
:102E5000823008F0F3CB77247394612CD12CC12CF1
:102E600022E0322ED701D9968C918715C0F1E72D3B
:102E7000F0E07D96EE0FFF1FEE0DFF1DA080B180EC
:102E8000F501808D81FD29C04501F6E18F0E911C71
:102E9000D8011A968C911A978F7314969C91149757
:102EA0009BA715969C9115979CA716969C919DA7FC
:102EB0008EA7212C422DB401CE0101960E94DF0B7A
:102EC000BE016F5F7F4FCE018B960E94C9058111B5
:102ED0002AC02394BAE02B12EDCF7394C3CFE1E064
:102EE000E61508F4A0CE55CC8AE0D8018C9382E098
:102EF00013968C93139712961C9212971A961C9203
:102F0000B801C7010E94750E78CCB2E03B1275CCB7
:102F10008AE0F80180833382128280E88287A801E8
:102F20004C5F5F4FEDCF6394650133243394D5CF6D
:102F30000C94DD22CF93DF93EC010E94E504CE01D7
:102F4000DF91CF910C94DD220C94DD220C94DD22D4
:102F50000C94DD220C94DD220C94DD220C94DD22F5
:102F60000C94DD220C94DD221F920F920FB60F926B
:102F700011242F933F934F935F936F937F938F937E
:102F80009F93AF93BF93EF93FF9383EC91E00E94E5
:102F90000503FF91EF91BF91AF919F918F917F9129
:102FA0006F915F914F913F912F910F900FBE0F90B6
:102FB0001F9018951F920F920FB60F9211242F9306
:102FC0008F939F93EF93FF93E091D301F091D401FE
:102FD0008081E091D901F091DA0182FD1BC09081DE
:102FE0008091DC018F5F8F732091DD01821741F0AA
:102FF000E091DC01F0E0ED53FE4F958F8093DC0112
:10300000FF91EF919F918F912F910F900FBE0F9095
:103010001F9018958081F4CF1F920F920FB60F92D8
:1030200011242F933F938F939F93AF93BF938091DE
:10303000880190918901A0918A01B0918B01309112
:10304000870123E0230F2D3758F50196A11DB11DEF
:10305000209387018093880190938901A0938A012E
:10306000B0938B018091830190918401A09185019F
:10307000B09186010196A11DB11D809383019093AB
:103080008401A0938501B0938601BF91AF919F9178
:103090008F913F912F910F900FBE0F901F90189519
:1030A00026E8230F0296A11DB11DD2CF1F920F92C9
:1030B0000FB60F9211242F933F934F935F936F930B
:1030C0007F938F939F93AF93BF93EF93FF93E09181
:1030D0000201F09103010995FF91EF91BF91AF912A
:1030E0009F918F917F916F915F914F913F912F9120
:1030F0000F900FBE0F901F9018951F920F920FB652
:103100000F9211242F933F934F935F936F937F936D
:103110008F939F93AF93BF93EF93FF93E091000141
:10312000F09101010995FF91EF91BF91AF919F91AE
:103130008F917F916F915F914F913F912F910F9060
:103140000FBE0F901F9018951F920F920FB60F92FF
:1031500011248F930FB6F894A89580916000886130
:1031600080936000109260000FBE8F910F900FBE91
:103170000F901F9018951F920F920FB60F92112467
:103180002F933F934F935F936F937F938F939F936F
:10319000AF93BF93CF93DF93EF93FF93C0E6D2E05B
:1031A00060E089810E9401041092B1006A817B81F4
:1031B0008C819D810E9497216093B30081E08E8372
:1031C000FF91EF91DF91CF91BF91AF919F918F913F
:1031D0007F916F915F914F913F912F910F900FBE13
:1031E0000F901F9018951F920F920FB60F921124F7
:1031F0000F900FBE0F901F9018951F920F920FB651
:103200000F9211242F933F934F935F936F937F936C
:103210008F939F93AF93BF93EF93FF93ECE6F2E00E
:1032200084818F5F8483CF010E947A08FF91EF91A0
:10323000BF91AF919F918F917F916F915F914F91CE
:103240003F912F910F900FBE0F901F9018951F92D6
:103250000F920FB60F9211242F933F934F935F93CA
:103260006F937F938F939F93AF93BF93EF93FF934E
:1032700081E792E00E947A08FF91EF91BF91AF91B0
:103280009F918F917F916F915F914F913F912F917E
:103290000F900FBE0F901F9018951F920F920FB6B0
:1032A0000F9211242F933F934F935F936F937F93CC
:1032B0008F939F93AF93BF93CF93EF93FF9399B166
:1032C000C09190018091C0013091BD01292F2095BE
:1032D00023238923822B20916D00C927C223C82371
:1032E00090939001CC23C1F1C0FF05C0E091910102
:1032F000F09192010995C1FF05C0E0919301F09111
:1033000094010995C2FF05C0E0919501F0919601E5
:103310000995C3FF05C0E0919701F09198010995C7
:10332000C4FF05C0E0919901F0919A010995C5FF8C
:1033300005C0E0919B01F0919C010995C6FF05C075
:10334000E0919D01F0919E010995C7FF05C0E091B4
:103350009F01F091A0010995FF91EF91CF91BF914D
:10336000AF919F918F917F916F915F914F913F911D
:103370002F910F900FBE0F901F9018951F920F92D4
:103380000FB60F9211242F933F934F935F936F9338
:103390007F938F939F93AF93BF93CF93EF93FF93BD
:1033A00096B1C091A1018091C1013091BE01292F38
:1033B000209523238923822B20916C00C927C223C7
:1033C000C8239093A101CC2351F1C0FF05C0E09127
:1033D000A201F091A3010995C1FF05C0E091A401EC
:1033E000F091A5010995C2FF05C0E091A601F091F9
:1033F000A7010995C3FF05C0E091A801F091A901BB
:103400000995C4FF05C0E091AA01F091AB010995AF
:10341000C5FF05C0E091AC01F091AD010995FF91A8
:10342000EF91CF91BF91AF919F918F917F916F91CC
:103430005F914F913F912F910F900FBE0F901F9072
:1034400018951F920F920FB60F9211242F933F934E
:103450004F935F936F937F938F939F93AF93BF939C
:10346000CF93EF93FF9393B1C091B0018091C201CC
:103470003091BF01292F209523238923822B20916E
:103480006B00C927C223C8239093B001CC2351F10C
:10349000C0FF05C0E091B101F091B2010995C1FFF3
:1034A00005C0E091B301F091B4010995C2FF05C0D8
:1034B000E091B501F091B6010995C3FF05C0E09117
:1034C000B701F091B8010995C4FF05C0E091B901B9
:1034D000F091BA010995C5FF05C0E091BB01F091DB
:1034E000BC010995FF91EF91CF91BF91AF919F9151
:1034F0008F917F916F915F914F913F912F910F909D
:103500000FBE0F901F9018951092C6011092C50122
:1035100088EE93E0A0E0B0E08093C7019093C801EB
:10352000A093C901B093CA018DE191E09093C401C9
:103530008093C30185EC90E09093D0018093CF01FC
:1035400084EC90E09093D2018093D10180EC90E0E4
:103550009093D4018093D30181EC90E09093D601B5
:103560008093D50182EC90E09093D8018093D701AD
:1035700086EC90E09093DA018093D9011092DC01FF
:103580001092DD011092DE011092DF0110926702AD
:1035900010926B0210926A021092690210927202EB
:1035A00010927102109274021092730210926D02C6
:1035B00010926C0210926F0210926E0210927002C2
:1035C000109256031092550310925803109259030B
:1035D00010925A032BE631E03093540320935303A7
:1035E00010926303109264031092650310926603B5
:1035F00081E08093570310926A031092690310923E
:103600006C0310926D0310926E0330936803209345
:103610006703109277031092780310927903109247
:103620007A0380936B0310927E0310927D031092B5
:103630007F0310928003109281031092820321E68F
:1036400031E030937C0320937B031092830310922C
:1036500084031092850310928603109287031092C0
:10366000880310928B0310928A0310928F0310929A
:103670008E0310929103109292031092930327E508
:1036800031E030938D0320938C0310929403809348
:1036900090031092960310929A031092990310923D
:1036A0009C0310929D0310929E032DE431E0309311
:1036B00098032093970310929F0380939B0388E0C5
:1036C0008093A0031092A1031092A2031092A3036F
:1036D0001092A4031092A7031092A6031092A503C0
:1036E0001092AA031092A9031092A8031092AB03A0
:1036F0001092AC031092CD031092CC031092CF0322
:103700001092CE031092900210928F0287EC92E0FA
:1037100090939202809391021092930210929602DB
:1037200010929502109294021092970210929802B1
:103730001092990210929A0210929B0210929E028D
:1037400010929D0210929C021092A1021092A0026F
:1037500010929F021092A2021092A30280E290E0C7
:103760009093C3028093C2022DE533E03093C502EB
:103770002093C40224E02093C6029093C802809351
:10378000C7028FEF8093D1021092D3021092D2021F
:103790001092D4021092D6021092D5021092D80242
:1037A0001092D70281E491E090938E0280938D0273
:1037B000E9EDF2E041E553E0A8E2B0E02FE231E0CC
:1037C00065E371E0178A168A808D8E7F8D7F808FEA
:1037D000118E138E128E138212821482158216821B
:1037E00017828085887F8160886080871186B38793
:1037F000A28717861686108A118A128A138A35873D
:103800002487F58BE48B71836083148E158E7E96EE
:103810004E175F07B9F689ED92E09093CA02809344
:10382000C90287EF92E09093CC028093CB0285E1AE
:1038300093E09093CE028093CD0283E393E0909344
:10384000D0028093CF0210927802109277021092E9
:10385000790210927A0210927B0210927C0280917F
:103860007D02887F8160886080937D0210927E0255
:1038700010928402109283021092850210928602A6
:103880001092870210928802309382022093810264
:1038900085E792E090938A028093890285E791E020
:1038A00090937602809375028DE892E090938C025B
:1038B00080938B028CE291E09093800280937F0250
:1038C0000895CF93DF93CDB7DEB728970FB6F8945E
:1038D000DEBF0FBECDBF789484B5826084BD84B551
:1038E000816084BD85B5826085BD85B5816085BDFB
:1038F00080916E00816080936E00109281008091B3
:10390000810082608093810080918100816080933A
:103910008100809180008160809380008091B1005F
:1039200084608093B1008091B00081608093B0008A
:1039300080917A00846080937A0080917A0082601E
:1039400080937A0080917A00816080937A008091E0
:103950007A00806880937A001092C100E091D301D0
:10396000F091D40182E08083E091D301F091D40101
:103970001082E091CF01F091D0011082E091D1014D
:10398000F091D20180E180831092DB01E091D701B8
:10399000F091D80186E08083E091D501F091D601C5
:1039A000808180618083E091D501F091D601808192
:1039B00088608083E091D501F091D6018081806894
:1039C0008083E091D501F091D60180818F7D808345
:1039D0008FEC92E00E9438058091C7029091C80256
:1039E000049620E04DE852E03091C602231788F497
:1039F000E22FF0E0EE0FFF1FE753FD4F0190F08143
:103A0000E02D2F5F578B468B218F938F828FC5962A
:103A1000EBCF8FEB92E00E9436056091C20270916D
:103A2000C30290E080E04AE00E9459098BEB92E0EB
:103A30000E943605E091C602F0E0EE0FFF1FE95349
:103A4000FD4F0190F081E02D628D738D6B5C7F4F97
:103A500090E080E04AE00E94590988EB92E00E94E1
:103A6000360560E090E080E00E947D0562E00E9403
:103A70007D056AE00E947D056BE00E947D056CE09B
:103A80000E947D058C01EE24E3948091C6028E1580
:103A900010F1F12C8F2D0E940F05682FC8010E9494
:103AA0007D058C01F39423E0F212F4CF80E00E94B4
:103AB0007502682FC8010E947D058C0180E00E947C
:103AC0000705682FC8010E947D056AE00E947D05F8
:103AD0008C01E394DACF44E050E070E060E0CE0186
:103AE00005960E946F2130E020E02E6F3A6C09832A
:103AF0001A832B833C836D817E818F819885061785
:103B000017072807390709F46AC00E94260A86EABF
:103B100092E00E94360589EA92E00E9436056981AA
:103B20007A818B819C810E94260A86EA92E00E941B
:103B3000360544E050E070E060E0CE0101960E945E
:103B40007F2141E060E087EC92E00E94170B40E0AB
:103B500061E087EC92E00E94170B40E062E087ECA6
:103B600092E00E94170B40E063E087EC92E00E9435
:103B7000170B10E08091C602181788F5E12FF0E0CE
:103B8000EE0FFF1FE753FD4FE080F18065E370E02B
:103B9000F701828D938D0E942E0BF701828D938DFC
:103BA0009A83898363E070E00E942E0B43E063EA0E
:103BB00072E084E00E946705082F8F3F71F08981D1
:103BC0009A81800F911D0E945E0B8F70482F40617B
:103BD000602FCE0101960E94170B1F5FCBCF81E5AE
:103BE00093E09093900280938F021B821A82198235
:103BF000BE016F5F7F4F8091C4029091C5020E9409
:103C0000E60D85E08093650361E00E942F0483E563
:103C100093E00E94190584E08093790361E00E949B
:103C20002F0487E693E00E941905E89886E892E061
:103C3000909301018093000185E993E090938E01B8
:103C400080938D018BE992E00E94360560E082E06E
:103C50000E942F0489E992E00E94380561E08AE021
:103C60000E942F041FB7F89480918C01811127C006
:103C7000EFE3F3E08491E3E5F3E09491E82FF0E0E3
:103C8000EE0FFF1FEB5BFD4FA591B491EC91E92383
:103C900021F461E08AE00E94010461E08AE00E9470
:103CA0002F048CB580618CBD8CB580648CBD61E0C7
:103CB0008DE00E942F0461E08BE00E942F04809130
:103CC0008C018F5F80938C011FBF0E94C3040E94F0
:103CD000BD040E94B90487EC90E00197F1F700C0A1
:103CE00000000E94C3040E94BD0481E591E00E948F
:103CF000710280E30E94E9080E94BD040E94B90499
:103D000005E612E0F9E9CF2EF2E0DF2EFF24F3946E
:103D1000F80131966491F801849143E00E94760A9B
:103D2000811101C0F12C0E5F1F4FC016D10681F723
:103D300088E592E00E94360560EC81E30E9441092B
:103D40000E94A70986EF92E00E94360583E30E9455
:103D50000F09FFE72FE181E0F15020408040E1F7BB
:103D600000C0000043E060EC8EE30E94760A8FE41E
:103D700092E00E943805FF2039F00E94F0080E946E
:103D8000200984E30E940F0985E295E090930101E8
:103D900080930001809169008C7F8260809369002C
:103DA000E89A80E180938100109280001092850053
:103DB0001092840080E197E29093870080938600C0
:103DC00082E1809381000E94C70468E070E0FF20D8
:103DD00011F066E070E082E593E00E945F0E0B81D7
:103DE00094E1099F8001112487E993E00E942A074A
:103DF00024E630E0D8010E94342228EE33E040E08F
:103E000050E00E94032220939C0330939D03409333
:103E10009E0381E080939F0367E973E081E792E06E
:103E20000E941C060E94B50A20918A0330918B03E0
:103E3000232B39F020918A0330918B03821793074B
:103E400020F490938B0380938A0380918A0390914E
:103E50008B0382E390E0A0E0B0E080938303909333
:103E60008403A0938503B09386038093800390938B
:103E70008103A09382036BE773E08CEC93E00E94D4
:103E80001C0686E18093870383E1809388038091F9
:103E9000C202ECEFEE2EE80E855090E004960E94F0
:103EA0005E0BD82E00E01EE5EE2DE150FF0B7F01EA
:103EB000802F90E08E159F0534F404960E945E0BCF
:103EC00018270F5FF5CF1D112BC084E090E00E94F2
:103ED0005E0B182F85E090E00E945E0B082F80EAB1
:103EE000810F8B30E8F483E392E00E943605812F46
:103EF0000E94A709802F0E94A70986EF92E00E94E6
:103F0000360543E061E28DE00E94760A43E0612FCE
:103F10008EE00E94760A43E0602F8FE00E94760ACE
:103F2000E091C902F091CA028EE0818762E00E94AE
:103F30002F0469E078E08EE00E94E501E091CB0279
:103F4000F091CC028FE0818762E00E942F046FE045
:103F500078E08FE00E94E501E091CD02F091CE0281
:103F600080E1818762E00E942F0465E178E080E1D2
:103F70000E94E501E091CF02F091D00281E18187BA
:103F800062E00E942F046BE178E081E10E94E5018C
:103F900088E080937E0262E00E942F0461E278E074
:103FA00088E00E94E50111E08091C602811708F0C7
:103FB00090C016E00EE060E1B62E72E2A72EE12C72
:103FC00081E792E00E94C708F82E81118EC0E110AF
:103FD00006C08CEC93E00E94C708811188C08091D4
:103FE0008F02909190028C5B9F4FFC01238522FFF2
:103FF00022C068E972E00E94230D8A30E0F01B8243
:104000001A821982BE016F5F7F4F8091C402909126
:10401000C5020E94E60DBE016F5F7F4F8CE992E002
:104020000E949E05811107C068E972E08DE892E068
:104030000E948C12F82E992493948091C6028915BF
:1040400008F457C0E92DF0E0EE0FFF1FE953FD4FD4
:10405000C080D180F601808D80FB882480F880FFAD
:1040600036C0F0909302F394F09293026091910223
:1040700070919202CE0101960E94B80BE0918F02DE
:10408000F0919002EB5BFF4F8081F601918D0093E0
:104090009802B0929B02A0929A021093A202F09210
:1040A00099029093A3021092A4021092A502809309
:1040B000A602AE014F5F5F4F68E972E08DE892E0C3
:1040C0000E94750EF601808D8E7F808FF82C939460
:1040D000B4CFE12FF0E0EE0FFF1FE953FD4F8081D9
:1040E00091810E94700B1F5F5FCFEF2C69CFE82E8C
:1040F00070CFE110B1C0F110AFC080919403811175
:10410000DBC083EC91E00E948F038091C00085FDAD
:1041100006C08091C00080648093C000F6CF80917B
:10412000C00086FFFCCF80916F008E7F80936F0070
:1041300081E792E00E94F705009709F49AC0FC011C
:10414000329709F496C0C580D680E780F12C83E7CA
:1041500092E00E94F705892B09F07CC0F1E0CF16B0
:10416000D104E104F10409F475C08091A00380FD3D
:1041700019C099249A9486E30E940F099A94807733
:1041800031F025E32A95F1F700009110F4CF8AE38E
:104190000E940F0989E30E940F098091A0038160AA
:1041A0008093A00381E2C81683E0D806E104F104FD
:1041B00008F063C095E6C916D104E104F10408F0E3
:1041C00065C0EDE0CE16D104E104F10408F066C04C
:1041D000F2E0CF16D104E104F10408F467C070E006
:1041E00060E0C12CD12C7601C39430E020E050E097
:1041F00040E08FE891E00E946B0481E792E00E942A
:10420000F705009719F1FC01329701F121E0C21A7C
:10421000D108E108F10885819681A781AC016A2F58
:1042200070E041505109610971094C155D056E0539
:104230007F0530F46C01EA2E21E0C21AD108E108B2
:104240008C199D09AE0985839683A78381E792E047
:104250000E947A080E94C70480E090E0892B09F44C
:10426000AECE0E94F102882309F4A9CE0E9400007C
:10427000A6CEC12CD12C76016ACF69E070E020E295
:10428000C22E23E0D22EE12CF12CAFCF66E070E0FD
:1042900094E6C92ED12CE12CF12CA7CF63E070E07D
:1042A0008CE0C82ED12CE12CF12C9FCF6AE070E07D
:1042B000C12CD12C760199CF61E085E993E00E9471
:1042C0002909CACF8DE892E00C94E504FB01DC01DA
:1042D00002C005900D9241505040D8F70895DC017E
:1042E000CB01FC01F999FECF06C0F2BDE1BDF89A01
:1042F000319600B40D9241505040B8F70895DC015A
:10430000CB0103C02D910E948A2141505040D0F72B
:104310000895262FF999FECF1FBA92BD81BD20BD09
:104320000FB6F894FA9AF99A0FBE019608950E9472
:10433000CE2188F09F5798F0B92F9927B751B0F048
:10434000E1F0660F771F881F991F1AF0BA95C9F719
:1043500014C0B13091F00E94E821B1E008950C94AE
:10436000E821672F782F8827B85F39F0B93FCCF361
:10437000869577956795B395D9F73EF49095809596
:10438000709561957F4F8F4F9F4F089557FD9058BF
:10439000440F551F59F05F3F71F04795880F97FB09
:1043A000991F61F09F3F79F08795089512161306C3
:1043B0001406551FF2CF4695F1DF08C016161706F2
:1043C0001806991FF1CF8695710561050894089527
:1043D000E894BB2766277727CB0197F90895AA1B96
:1043E000BB1B51E107C0AA1FBB1FA617B70710F0E0
:1043F000A61BB70B881F991F5A95A9F78095909512
:10440000BC01CD010895A1E21A2EAA1BBB1BFD0120
:104410000DC0AA1FBB1FEE1FFF1FA217B307E407A3
:10442000F50720F0A21BB30BE40BF50B661F771FFB
:10443000881F991F1A9469F76095709580959095DB
:104440009B01AC01BD01CF010895A29FB001B39FB4
:10445000C001A39F700D811D1124911DB29F700D8D
:10446000811D1124911D08950E942522B7FF0895F2
:10447000821B930B0895EE0FFF1F0590F491E02D22
:1044800009940F931F93CF93DF938230910510F41B
:1044900082E090E0E091D203F091D30330E020E09D
:1044A000B0E0A0E0309799F42115310509F44AC035
:1044B000281B390B24303105D8F58A819B81611581
:1044C000710589F1FB0193838283FE0111C0408154
:1044D00051810281138148175907E0F048175907A5
:1044E00099F4109761F012960C93129713961C93FF
:1044F0003296CF01DF91CF911F910F9108950093D4
:10450000D2031093D303F4CF2115310551F0421794
:10451000530738F0A901DB019A01BD01DF01F80161
:10452000C1CFEF01F9CF9093D3038093D203CDCFC6
:10453000FE01E20FF31F81939193225031093983D9
:104540002883D7CF2091D0033091D103232B41F47E
:1045500020910601309107013093D1032093D003BD
:1045600020910401309105012115310541F42DB749
:104570003EB74091080150910901241B350BE09191
:10458000D003F091D103E217F307A0F42E1B3F0BE9
:104590002817390778F0AC014E5F5F4F24173507B5
:1045A00048F04E0F5F1F5093D1034093D003819387
:1045B00091939FCFF0E0E0E09CCFCF93DF93009703
:1045C000E9F0FC01329713821282A091D203B091DC
:1045D000D303ED0130E020E01097A1F42081318178
:1045E000820F931F2091D0033091D10328173907F0
:1045F00009F061C0F093D103E093D003DF91CF9134
:104600000895EA01CE17DF07E8F54A815B819E0134
:1046100041155105B1F7E901FB83EA8349915991AD
:10462000C40FD51FEC17FD0761F4808191810296BC
:10463000840F951FE90199838883828193819B83ED
:104640008A83F0E0E0E012968D919C911397009799
:10465000B9F52D913C911197CD010296820F931FD0
:104660002091D0033091D1032817390739F63097BC
:1046700051F51092D3031092D203B093D103A093BB
:10468000D003BCCFD383C28340815181840F951F57
:10469000C817D90761F44E5F5F4F88819981480F31
:1046A000591F518340838A819B8193838283211583
:1046B000310509F0B0CFF093D303E093D2039ECF3E
:1046C000FD01DC01C0CF13821282D7CFFB01DC01D8
:1046D00004C08D910190801921F441505040C8F7D9
:1046E000881B990B0895FB01DC0102C001900D921B
:1046F00041505040D8F7089511E0CAEBD1E004C012
:10470000FE010E943B222196CB3BD107C9F7F894CA
:02471000FFCFD9
:10471200860286020000D403800000FFFFFFFFFF35
:10472200FFFF010203020A0B0C00000000270387AF
:1047320002B4028F03E502C302D70200000000A404
:10474200070000000090063105AA17D410000000EF
:1047520000E5049A1774028C1200000000E2043390
:1047620005AE1700000000E2043305B21700000096
:1047720000FA0A3405981700000000050E3505B04E
:0E478200170000000090060605A41773100033
:00000001FF
